{
  "_format": "hh-sol-artifact-1",
  "contractName": "MyEpicNFT",
  "sourceName": "contracts/MyEpicNFT.sol",
  "abi": [
    {
      "inputs": [],
      "stateMutability": "nonpayable",
      "type": "constructor"
    },
    {
      "anonymous": false,
      "inputs": [
        {
          "indexed": true,
          "internalType": "address",
          "name": "owner",
          "type": "address"
        },
        {
          "indexed": true,
          "internalType": "address",
          "name": "approved",
          "type": "address"
        },
        {
          "indexed": true,
          "internalType": "uint256",
          "name": "tokenId",
          "type": "uint256"
        }
      ],
      "name": "Approval",
      "type": "event"
    },
    {
      "anonymous": false,
      "inputs": [
        {
          "indexed": true,
          "internalType": "address",
          "name": "owner",
          "type": "address"
        },
        {
          "indexed": true,
          "internalType": "address",
          "name": "operator",
          "type": "address"
        },
        {
          "indexed": false,
          "internalType": "bool",
          "name": "approved",
          "type": "bool"
        }
      ],
      "name": "ApprovalForAll",
      "type": "event"
    },
    {
      "anonymous": false,
      "inputs": [
        {
          "indexed": true,
          "internalType": "address",
          "name": "from",
          "type": "address"
        },
        {
          "indexed": true,
          "internalType": "address",
          "name": "to",
          "type": "address"
        },
        {
          "indexed": true,
          "internalType": "uint256",
          "name": "tokenId",
          "type": "uint256"
        }
      ],
      "name": "Transfer",
      "type": "event"
    },
    {
      "inputs": [
        {
          "internalType": "address",
          "name": "to",
          "type": "address"
        },
        {
          "internalType": "uint256",
          "name": "tokenId",
          "type": "uint256"
        }
      ],
      "name": "approve",
      "outputs": [],
      "stateMutability": "nonpayable",
      "type": "function"
    },
    {
      "inputs": [
        {
          "internalType": "address",
          "name": "owner",
          "type": "address"
        }
      ],
      "name": "balanceOf",
      "outputs": [
        {
          "internalType": "uint256",
          "name": "",
          "type": "uint256"
        }
      ],
      "stateMutability": "view",
      "type": "function"
    },
    {
      "inputs": [
        {
          "internalType": "uint256",
          "name": "tokenId",
          "type": "uint256"
        }
      ],
      "name": "getApproved",
      "outputs": [
        {
          "internalType": "address",
          "name": "",
          "type": "address"
        }
      ],
      "stateMutability": "view",
      "type": "function"
    },
    {
      "inputs": [
        {
          "internalType": "address",
          "name": "owner",
          "type": "address"
        },
        {
          "internalType": "address",
          "name": "operator",
          "type": "address"
        }
      ],
      "name": "isApprovedForAll",
      "outputs": [
        {
          "internalType": "bool",
          "name": "",
          "type": "bool"
        }
      ],
      "stateMutability": "view",
      "type": "function"
    },
    {
      "inputs": [],
      "name": "makeAnEpicNFT",
      "outputs": [],
      "stateMutability": "nonpayable",
      "type": "function"
    },
    {
      "inputs": [],
      "name": "name",
      "outputs": [
        {
          "internalType": "string",
          "name": "",
          "type": "string"
        }
      ],
      "stateMutability": "view",
      "type": "function"
    },
    {
      "inputs": [
        {
          "internalType": "uint256",
          "name": "tokenId",
          "type": "uint256"
        }
      ],
      "name": "ownerOf",
      "outputs": [
        {
          "internalType": "address",
          "name": "",
          "type": "address"
        }
      ],
      "stateMutability": "view",
      "type": "function"
    },
    {
      "inputs": [
        {
          "internalType": "uint256",
          "name": "tokenId",
          "type": "uint256"
        }
      ],
      "name": "pickRandomAccent",
      "outputs": [
        {
          "internalType": "string",
          "name": "",
          "type": "string"
        }
      ],
      "stateMutability": "view",
      "type": "function"
    },
    {
      "inputs": [
        {
          "internalType": "uint256",
          "name": "tokenId",
          "type": "uint256"
        }
      ],
      "name": "pickRandomVariant",
      "outputs": [
        {
          "internalType": "string",
          "name": "",
          "type": "string"
        }
      ],
      "stateMutability": "view",
      "type": "function"
    },
    {
      "inputs": [
        {
          "internalType": "address",
          "name": "from",
          "type": "address"
        },
        {
          "internalType": "address",
          "name": "to",
          "type": "address"
        },
        {
          "internalType": "uint256",
          "name": "tokenId",
          "type": "uint256"
        }
      ],
      "name": "safeTransferFrom",
      "outputs": [],
      "stateMutability": "nonpayable",
      "type": "function"
    },
    {
      "inputs": [
        {
          "internalType": "address",
          "name": "from",
          "type": "address"
        },
        {
          "internalType": "address",
          "name": "to",
          "type": "address"
        },
        {
          "internalType": "uint256",
          "name": "tokenId",
          "type": "uint256"
        },
        {
          "internalType": "bytes",
          "name": "_data",
          "type": "bytes"
        }
      ],
      "name": "safeTransferFrom",
      "outputs": [],
      "stateMutability": "nonpayable",
      "type": "function"
    },
    {
      "inputs": [
        {
          "internalType": "address",
          "name": "operator",
          "type": "address"
        },
        {
          "internalType": "bool",
          "name": "approved",
          "type": "bool"
        }
      ],
      "name": "setApprovalForAll",
      "outputs": [],
      "stateMutability": "nonpayable",
      "type": "function"
    },
    {
      "inputs": [
        {
          "internalType": "bytes4",
          "name": "interfaceId",
          "type": "bytes4"
        }
      ],
      "name": "supportsInterface",
      "outputs": [
        {
          "internalType": "bool",
          "name": "",
          "type": "bool"
        }
      ],
      "stateMutability": "view",
      "type": "function"
    },
    {
      "inputs": [],
      "name": "symbol",
      "outputs": [
        {
          "internalType": "string",
          "name": "",
          "type": "string"
        }
      ],
      "stateMutability": "view",
      "type": "function"
    },
    {
      "inputs": [
        {
          "internalType": "uint256",
          "name": "tokenId",
          "type": "uint256"
        }
      ],
      "name": "tokenURI",
      "outputs": [
        {
          "internalType": "string",
          "name": "",
          "type": "string"
        }
      ],
      "stateMutability": "view",
      "type": "function"
    },
    {
      "inputs": [
        {
          "internalType": "address",
          "name": "from",
          "type": "address"
        },
        {
          "internalType": "address",
          "name": "to",
          "type": "address"
        },
        {
          "internalType": "uint256",
          "name": "tokenId",
          "type": "uint256"
        }
      ],
      "name": "transferFrom",
      "outputs": [],
      "stateMutability": "nonpayable",
      "type": "function"
    }
  ],
  "bytecode": "0x6080604052604051806040016040528060405180610a800160405280610a5481526020016200779b610a549139815260200160405180610aa00160405280610a678152602001620081ef610a67913981525060089060026200006392919062003d11565b5060405180611fe001604052806040518060400160405280600781526020017f234634343333360000000000000000000000000000000000000000000000000081525081526020016040518060400160405280600781526020017f234646454245450000000000000000000000000000000000000000000000000081525081526020016040518060400160405280600781526020017f234646434444320000000000000000000000000000000000000000000000000081525081526020016040518060400160405280600781526020017f234546394139410000000000000000000000000000000000000000000000000081525081526020016040518060400160405280600781526020017f234535373337330000000000000000000000000000000000000000000000000081525081526020016040518060400160405280600781526020017f234546353335300000000000000000000000000000000000000000000000000081525081526020016040518060400160405280600781526020017f234535333933350000000000000000000000000000000000000000000000000081525081526020016040518060400160405280600781526020017f234433324632460000000000000000000000000000000000000000000000000081525081526020016040518060400160405280600781526020017f234336323832380000000000000000000000000000000000000000000000000081525081526020016040518060400160405280600781526020017f234237314331430000000000000000000000000000000000000000000000000081525081526020016040518060400160405280600781526020017f234646384138300000000000000000000000000000000000000000000000000081525081526020016040518060400160405280600781526020017f234646353235320000000000000000000000000000000000000000000000000081525081526020016040518060400160405280600781526020017f234646313734340000000000000000000000000000000000000000000000000081525081526020016040518060400160405280600781526020017f234435303030300000000000000000000000000000000000000000000000000081525081526020016040518060400160405280600781526020017f234643453445430000000000000000000000000000000000000000000000000081525081526020016040518060400160405280600781526020017f234638424244300000000000000000000000000000000000000000000000000081525081526020016040518060400160405280600781526020017f234634384642310000000000000000000000000000000000000000000000000081525081526020016040518060400160405280600781526020017f234630363239320000000000000000000000000000000000000000000000000081525081526020016040518060400160405280600781526020017f234543343037410000000000000000000000000000000000000000000000000081525081526020016040518060400160405280600781526020017f234539314536330000000000000000000000000000000000000000000000000081525081526020016040518060400160405280600781526020017f234438314236300000000000000000000000000000000000000000000000000081525081526020016040518060400160405280600781526020017f234332313835420000000000000000000000000000000000000000000000000081525081526020016040518060400160405280600781526020017f234144313435370000000000000000000000000000000000000000000000000081525081526020016040518060400160405280600781526020017f233838304534460000000000000000000000000000000000000000000000000081525081526020016040518060400160405280600781526020017f234646383041420000000000000000000000000000000000000000000000000081525081526020016040518060400160405280600781526020017f234646343038310000000000000000000000000000000000000000000000000081525081526020016040518060400160405280600781526020017f234635303035370000000000000000000000000000000000000000000000000081525081526020016040518060400160405280600781526020017f234335313136320000000000000000000000000000000000000000000000000081525081526020016040518060400160405280600781526020017f234633453546350000000000000000000000000000000000000000000000000081525081526020016040518060400160405280600781526020017f234531424545370000000000000000000000000000000000000000000000000081525081526020016040518060400160405280600781526020017f234345393344380000000000000000000000000000000000000000000000000081525081526020016040518060400160405280600781526020017f234241363843380000000000000000000000000000000000000000000000000081525081526020016040518060400160405280600781526020017f234142343742430000000000000000000000000000000000000000000000000081525081526020016040518060400160405280600781526020017f233943323742300000000000000000000000000000000000000000000000000081525081526020016040518060400160405280600781526020017f233845323441410000000000000000000000000000000000000000000000000081525081526020016040518060400160405280600781526020017f233742314641320000000000000000000000000000000000000000000000000081525081526020016040518060400160405280600781526020017f233641314239410000000000000000000000000000000000000000000000000081525081526020016040518060400160405280600781526020017f233441313438430000000000000000000000000000000000000000000000000081525081526020016040518060400160405280600781526020017f234541383046430000000000000000000000000000000000000000000000000081525081526020016040518060400160405280600781526020017f234530343046420000000000000000000000000000000000000000000000000081525081526020016040518060400160405280600781526020017f234435303046390000000000000000000000000000000000000000000000000081525081526020016040518060400160405280600781526020017f234141303046460000000000000000000000000000000000000000000000000081525081526020016040518060400160405280600781526020017f234544453746360000000000000000000000000000000000000000000000000081525081526020016040518060400160405280600781526020017f234431433445390000000000000000000000000000000000000000000000000081525081526020016040518060400160405280600781526020017f234233394444420000000000000000000000000000000000000000000000000081525081526020016040518060400160405280600781526020017f233935373543440000000000000000000000000000000000000000000000000081525081526020016040518060400160405280600781526020017f233745353743320000000000000000000000000000000000000000000000000081525081526020016040518060400160405280600781526020017f233637334142370000000000000000000000000000000000000000000000000081525081526020016040518060400160405280600781526020017f233545333542310000000000000000000000000000000000000000000000000081525081526020016040518060400160405280600781526020017f233531324441380000000000000000000000000000000000000000000000000081525081526020016040518060400160405280600781526020017f233435323741300000000000000000000000000000000000000000000000000081525081526020016040518060400160405280600781526020017f233331314239320000000000000000000000000000000000000000000000000081525081526020016040518060400160405280600781526020017f234233383846460000000000000000000000000000000000000000000000000081525081526020016040518060400160405280600781526020017f233743344446460000000000000000000000000000000000000000000000000081525081526020016040518060400160405280600781526020017f233635314646460000000000000000000000000000000000000000000000000081525081526020016040518060400160405280600781526020017f233632303045410000000000000000000000000000000000000000000000000081525081526020016040518060400160405280600781526020017f234538454146360000000000000000000000000000000000000000000000000081525081526020016040518060400160405280600781526020017f234335434145390000000000000000000000000000000000000000000000000081525081526020016040518060400160405280600781526020017f233946413844410000000000000000000000000000000000000000000000000081525081526020016040518060400160405280600781526020017f233739383643420000000000000000000000000000000000000000000000000081525081526020016040518060400160405280600781526020017f233543364243300000000000000000000000000000000000000000000000000081525081526020016040518060400160405280600781526020017f233346353142350000000000000000000000000000000000000000000000000081525081526020016040518060400160405280600781526020017f233339343941420000000000000000000000000000000000000000000000000081525081526020016040518060400160405280600781526020017f233330334639460000000000000000000000000000000000000000000000000081525081526020016040518060400160405280600781526020017f233238333539330000000000000000000000000000000000000000000000000081525081526020016040518060400160405280600781526020017f233141323337450000000000000000000000000000000000000000000000000081525081526020016040518060400160405280600781526020017f233843394546460000000000000000000000000000000000000000000000000081525081526020016040518060400160405280600781526020017f233533364446450000000000000000000000000000000000000000000000000081525081526020016040518060400160405280600781526020017f233344354146450000000000000000000000000000000000000000000000000081525081526020016040518060400160405280600781526020017f233330344646450000000000000000000000000000000000000000000000000081525081526020016040518060400160405280600781526020017f234533463246440000000000000000000000000000000000000000000000000081525081526020016040518060400160405280600781526020017f234242444546420000000000000000000000000000000000000000000000000081525081526020016040518060400160405280600781526020017f233930434146390000000000000000000000000000000000000000000000000081525081526020016040518060400160405280600781526020017f233634423546360000000000000000000000000000000000000000000000000081525081526020016040518060400160405280600781526020017f233432413546350000000000000000000000000000000000000000000000000081525081526020016040518060400160405280600781526020017f233231393646330000000000000000000000000000000000000000000000000081525081526020016040518060400160405280600781526020017f233145383845350000000000000000000000000000000000000000000000000081525081526020016040518060400160405280600781526020017f233139373644320000000000000000000000000000000000000000000000000081525081526020016040518060400160405280600781526020017f233135363543300000000000000000000000000000000000000000000000000081525081526020016040518060400160405280600781526020017f233044343741310000000000000000000000000000000000000000000000000081525081526020016040518060400160405280600781526020017f233832423146460000000000000000000000000000000000000000000000000081525081526020016040518060400160405280600781526020017f233434384146460000000000000000000000000000000000000000000000000081525081526020016040518060400160405280600781526020017f233239373946460000000000000000000000000000000000000000000000000081525081526020016040518060400160405280600781526020017f233239363246460000000000000000000000000000000000000000000000000081525081526020016040518060400160405280600781526020017f234531463546450000000000000000000000000000000000000000000000000081525081526020016040518060400160405280600781526020017f234233453546430000000000000000000000000000000000000000000000000081525081526020016040518060400160405280600781526020017f233831443446410000000000000000000000000000000000000000000000000081525081526020016040518060400160405280600781526020017f233446433346370000000000000000000000000000000000000000000000000081525081526020016040518060400160405280600781526020017f233239423646360000000000000000000000000000000000000000000000000081525081526020016040518060400160405280600781526020017f233033413946340000000000000000000000000000000000000000000000000081525081526020016040518060400160405280600781526020017f233033394245350000000000000000000000000000000000000000000000000081525081526020016040518060400160405280600781526020017f233032383844310000000000000000000000000000000000000000000000000081525081526020016040518060400160405280600781526020017f233032373742440000000000000000000000000000000000000000000000000081525081526020016040518060400160405280600781526020017f233031353739420000000000000000000000000000000000000000000000000081525081526020016040518060400160405280600781526020017f233830443846460000000000000000000000000000000000000000000000000081525081526020016040518060400160405280600781526020017f233430433446460000000000000000000000000000000000000000000000000081525081526020016040518060400160405280600781526020017f233030423046460000000000000000000000000000000000000000000000000081525081526020016040518060400160405280600781526020017f233030393145410000000000000000000000000000000000000000000000000081525081526020016040518060400160405280600781526020017f234530463746410000000000000000000000000000000000000000000000000081525081526020016040518060400160405280600781526020017f234232454246320000000000000000000000000000000000000000000000000081525081526020016040518060400160405280600781526020017f233830444545410000000000000000000000000000000000000000000000000081525081526020016040518060400160405280600781526020017f233444443045310000000000000000000000000000000000000000000000000081525081526020016040518060400160405280600781526020017f233236433644410000000000000000000000000000000000000000000000000081525081526020016040518060400160405280600781526020017f233030424344340000000000000000000000000000000000000000000000000081525081526020016040518060400160405280600781526020017f233030414343310000000000000000000000000000000000000000000000000081525081526020016040518060400160405280600781526020017f233030393741370000000000000000000000000000000000000000000000000081525081526020016040518060400160405280600781526020017f233030383338460000000000000000000000000000000000000000000000000081525081526020016040518060400160405280600781526020017f233030363036340000000000000000000000000000000000000000000000000081525081526020016040518060400160405280600781526020017f233834464646460000000000000000000000000000000000000000000000000081525081526020016040518060400160405280600781526020017f233138464646460000000000000000000000000000000000000000000000000081525081526020016040518060400160405280600781526020017f233030453546460000000000000000000000000000000000000000000000000081525081526020016040518060400160405280600781526020017f233030423844340000000000000000000000000000000000000000000000000081525081526020016040518060400160405280600781526020017f234530463246310000000000000000000000000000000000000000000000000081525081526020016040518060400160405280600781526020017f234232444644420000000000000000000000000000000000000000000000000081525081526020016040518060400160405280600781526020017f233830434243340000000000000000000000000000000000000000000000000081525081526020016040518060400160405280600781526020017f233444423641430000000000000000000000000000000000000000000000000081525081526020016040518060400160405280600781526020017f233236413639410000000000000000000000000000000000000000000000000081525081526020016040518060400160405280600781526020017f233030393638380000000000000000000000000000000000000000000000000081525081526020016040518060400160405280600781526020017f233030383937420000000000000000000000000000000000000000000000000081525081526020016040518060400160405280600781526020017f233030373936420000000000000000000000000000000000000000000000000081525081526020016040518060400160405280600781526020017f233030363935430000000000000000000000000000000000000000000000000081525081526020016040518060400160405280600781526020017f233030344434300000000000000000000000000000000000000000000000000081525081526020016040518060400160405280600781526020017f234137464645420000000000000000000000000000000000000000000000000081525081526020016040518060400160405280600781526020017f233634464644410000000000000000000000000000000000000000000000000081525081526020016040518060400160405280600781526020017f233144453942360000000000000000000000000000000000000000000000000081525081526020016040518060400160405280600781526020017f233030424641350000000000000000000000000000000000000000000000000081525081526020016040518060400160405280600781526020017f234538463545390000000000000000000000000000000000000000000000000081525081526020016040518060400160405280600781526020017f234338453643390000000000000000000000000000000000000000000000000081525081526020016040518060400160405280600781526020017f234135443641370000000000000000000000000000000000000000000000000081525081526020016040518060400160405280600781526020017f233831433738340000000000000000000000000000000000000000000000000081525081526020016040518060400160405280600781526020017f233636424236410000000000000000000000000000000000000000000000000081525081526020016040518060400160405280600781526020017f233443414635300000000000000000000000000000000000000000000000000081525081526020016040518060400160405280600781526020017f233433413034370000000000000000000000000000000000000000000000000081525081526020016040518060400160405280600781526020017f233338384533430000000000000000000000000000000000000000000000000081525081526020016040518060400160405280600781526020017f233245374433320000000000000000000000000000000000000000000000000081525081526020016040518060400160405280600781526020017f233142354532300000000000000000000000000000000000000000000000000081525081526020016040518060400160405280600781526020017f234239463643410000000000000000000000000000000000000000000000000081525081526020016040518060400160405280600781526020017f233639463041450000000000000000000000000000000000000000000000000081525081526020016040518060400160405280600781526020017f233030453637360000000000000000000000000000000000000000000000000081525081526020016040518060400160405280600781526020017f233030433835330000000000000000000000000000000000000000000000000081525081526020016040518060400160405280600781526020017f234631463845390000000000000000000000000000000000000000000000000081525081526020016040518060400160405280600781526020017f234443454443380000000000000000000000000000000000000000000000000081525081526020016040518060400160405280600781526020017f234335453141350000000000000000000000000000000000000000000000000081525081526020016040518060400160405280600781526020017f234145443538310000000000000000000000000000000000000000000000000081525081526020016040518060400160405280600781526020017f233943434336350000000000000000000000000000000000000000000000000081525081526020016040518060400160405280600781526020017f233842433334410000000000000000000000000000000000000000000000000081525081526020016040518060400160405280600781526020017f233743423334320000000000000000000000000000000000000000000000000081525081526020016040518060400160405280600781526020017f233638394633380000000000000000000000000000000000000000000000000081525081526020016040518060400160405280600781526020017f233535384232460000000000000000000000000000000000000000000000000081525081526020016040518060400160405280600781526020017f233333363931450000000000000000000000000000000000000000000000000081525081526020016040518060400160405280600781526020017f234343464639300000000000000000000000000000000000000000000000000081525081526020016040518060400160405280600781526020017f234232464635390000000000000000000000000000000000000000000000000081525081526020016040518060400160405280600781526020017f233736464630330000000000000000000000000000000000000000000000000081525081526020016040518060400160405280600781526020017f233634444431370000000000000000000000000000000000000000000000000081525081526020016040518060400160405280600781526020017f234639464245370000000000000000000000000000000000000000000000000081525081526020016040518060400160405280600781526020017f234630463443330000000000000000000000000000000000000000000000000081525081526020016040518060400160405280600781526020017f234536454539430000000000000000000000000000000000000000000000000081525081526020016040518060400160405280600781526020017f234443453737350000000000000000000000000000000000000000000000000081525081526020016040518060400160405280600781526020017f234434453135370000000000000000000000000000000000000000000000000081525081526020016040518060400160405280600781526020017f234344444333390000000000000000000000000000000000000000000000000081525081526020016040518060400160405280600781526020017f234330434133330000000000000000000000000000000000000000000000000081525081526020016040518060400160405280600781526020017f234146423432420000000000000000000000000000000000000000000000000081525081526020016040518060400160405280600781526020017f233945394432340000000000000000000000000000000000000000000000000081525081526020016040518060400160405280600781526020017f233832373731370000000000000000000000000000000000000000000000000081525081526020016040518060400160405280600781526020017f234634464638310000000000000000000000000000000000000000000000000081525081526020016040518060400160405280600781526020017f234545464634310000000000000000000000000000000000000000000000000081525081526020016040518060400160405280600781526020017f234336464630300000000000000000000000000000000000000000000000000081525081526020016040518060400160405280600781526020017f234145454130300000000000000000000000000000000000000000000000000081525081526020016040518060400160405280600781526020017f234646464445370000000000000000000000000000000000000000000000000081525081526020016040518060400160405280600781526020017f234646463943340000000000000000000000000000000000000000000000000081525081526020016040518060400160405280600781526020017f234646463539440000000000000000000000000000000000000000000000000081525081526020016040518060400160405280600781526020017f234646463137360000000000000000000000000000000000000000000000000081525081526020016040518060400160405280600781526020017f234646454535380000000000000000000000000000000000000000000000000081525081526020016040518060400160405280600781526020017f234646454233420000000000000000000000000000000000000000000000000081525081526020016040518060400160405280600781526020017f234644443833350000000000000000000000000000000000000000000000000081525081526020016040518060400160405280600781526020017f234642433032440000000000000000000000000000000000000000000000000081525081526020016040518060400160405280600781526020017f234639413832350000000000000000000000000000000000000000000000000081525081526020016040518060400160405280600781526020017f234635374631370000000000000000000000000000000000000000000000000081525081526020016040518060400160405280600781526020017f234646464638440000000000000000000000000000000000000000000000000081525081526020016040518060400160405280600781526020017f234646464630300000000000000000000000000000000000000000000000000081525081526020016040518060400160405280600781526020017f234646454130300000000000000000000000000000000000000000000000000081525081526020016040518060400160405280600781526020017f234646443630300000000000000000000000000000000000000000000000000081525081526020016040518060400160405280600781526020017f234646463845310000000000000000000000000000000000000000000000000081525081526020016040518060400160405280600781526020017f234646454342330000000000000000000000000000000000000000000000000081525081526020016040518060400160405280600781526020017f234646453038320000000000000000000000000000000000000000000000000081525081526020016040518060400160405280600781526020017f234646443534460000000000000000000000000000000000000000000000000081525081526020016040518060400160405280600781526020017f234646434132380000000000000000000000000000000000000000000000000081525081526020016040518060400160405280600781526020017f234646433130370000000000000000000000000000000000000000000000000081525081526020016040518060400160405280600781526020017f234646423330300000000000000000000000000000000000000000000000000081525081526020016040518060400160405280600781526020017f234646413030300000000000000000000000000000000000000000000000000081525081526020016040518060400160405280600781526020017f234646384630300000000000000000000000000000000000000000000000000081525081526020016040518060400160405280600781526020017f234646364630300000000000000000000000000000000000000000000000000081525081526020016040518060400160405280600781526020017f234646453537460000000000000000000000000000000000000000000000000081525081526020016040518060400160405280600781526020017f234646443734300000000000000000000000000000000000000000000000000081525081526020016040518060400160405280600781526020017f234646433430300000000000000000000000000000000000000000000000000081525081526020016040518060400160405280600781526020017f234646414230300000000000000000000000000000000000000000000000000081525081526020016040518060400160405280600781526020017f234646463345300000000000000000000000000000000000000000000000000081525081526020016040518060400160405280600781526020017f234646453042320000000000000000000000000000000000000000000000000081525081526020016040518060400160405280600781526020017f234646434338300000000000000000000000000000000000000000000000000081525081526020016040518060400160405280600781526020017f234646423734440000000000000000000000000000000000000000000000000081525081526020016040518060400160405280600781526020017f234646413732360000000000000000000000000000000000000000000000000081525081526020016040518060400160405280600781526020017f234646393830300000000000000000000000000000000000000000000000000081525081526020016040518060400160405280600781526020017f234642384330300000000000000000000000000000000000000000000000000081525081526020016040518060400160405280600781526020017f234635374330300000000000000000000000000000000000000000000000000081525081526020016040518060400160405280600781526020017f234546364330300000000000000000000000000000000000000000000000000081525081526020016040518060400160405280600781526020017f234536353130300000000000000000000000000000000000000000000000000081525081526020016040518060400160405280600781526020017f234646443138300000000000000000000000000000000000000000000000000081525081526020016040518060400160405280600781526020017f234646414234300000000000000000000000000000000000000000000000000081525081526020016040518060400160405280600781526020017f234646393130300000000000000000000000000000000000000000000000000081525081526020016040518060400160405280600781526020017f234646364430300000000000000000000000000000000000000000000000000081525081526020016040518060400160405280600781526020017f234642453945370000000000000000000000000000000000000000000000000081525081526020016040518060400160405280600781526020017f234646434342430000000000000000000000000000000000000000000000000081525081526020016040518060400160405280600781526020017f234646414239310000000000000000000000000000000000000000000000000081525081526020016040518060400160405280600781526020017f234646384136350000000000000000000000000000000000000000000000000081525081526020016040518060400160405280600781526020017f234646373034330000000000000000000000000000000000000000000000000081525081526020016040518060400160405280600781526020017f234646353732320000000000000000000000000000000000000000000000000081525081526020016040518060400160405280600781526020017f234634353131450000000000000000000000000000000000000000000000000081525081526020016040518060400160405280600781526020017f234536344131390000000000000000000000000000000000000000000000000081525081526020016040518060400160405280600781526020017f234438343331350000000000000000000000000000000000000000000000000081525081526020016040518060400160405280600781526020017f234246333630430000000000000000000000000000000000000000000000000081525081526020016040518060400160405280600781526020017f234646394538300000000000000000000000000000000000000000000000000081525081526020016040518060400160405280600781526020017f234646364534300000000000000000000000000000000000000000000000000081525081526020016040518060400160405280600781526020017f234646334430300000000000000000000000000000000000000000000000000081525081526020016040518060400160405280600781526020017f234444324330300000000000000000000000000000000000000000000000000081525081526020016040518060400160405280600781526020017f234546454245390000000000000000000000000000000000000000000000000081525081526020016040518060400160405280600781526020017f234437434343380000000000000000000000000000000000000000000000000081525081526020016040518060400160405280600781526020017f234243414141340000000000000000000000000000000000000000000000000081525081526020016040518060400160405280600781526020017f234131383837460000000000000000000000000000000000000000000000000081525081526020016040518060400160405280600781526020017f233844364536330000000000000000000000000000000000000000000000000081525081526020016040518060400160405280600781526020017f233739353534380000000000000000000000000000000000000000000000000081525081526020016040518060400160405280600781526020017f233644344334310000000000000000000000000000000000000000000000000081525081526020016040518060400160405280600781526020017f233544343033370000000000000000000000000000000000000000000000000081525081526020016040518060400160405280600781526020017f233445333432450000000000000000000000000000000000000000000000000081525081526020016040518060400160405280600781526020017f233345323732330000000000000000000000000000000000000000000000000081525081526020016040518060400160405280600781526020017f234641464146410000000000000000000000000000000000000000000000000081525081526020016040518060400160405280600781526020017f234635463546350000000000000000000000000000000000000000000000000081525081526020016040518060400160405280600781526020017f234545454545450000000000000000000000000000000000000000000000000081525081526020016040518060400160405280600781526020017f234530453045300000000000000000000000000000000000000000000000000081525081526020016040518060400160405280600781526020017f234244424442440000000000000000000000000000000000000000000000000081525081526020016040518060400160405280600781526020017f233945394539450000000000000000000000000000000000000000000000000081525081526020016040518060400160405280600781526020017f233735373537350000000000000000000000000000000000000000000000000081525081526020016040518060400160405280600781526020017f233631363136310000000000000000000000000000000000000000000000000081525081526020016040518060400160405280600781526020017f233432343234320000000000000000000000000000000000000000000000000081525081526020016040518060400160405280600781526020017f233231323132310000000000000000000000000000000000000000000000000081525081526020016040518060400160405280600781526020017f234543454646310000000000000000000000000000000000000000000000000081525081526020016040518060400160405280600781526020017f234346443844430000000000000000000000000000000000000000000000000081525081526020016040518060400160405280600781526020017f234230424543350000000000000000000000000000000000000000000000000081525081526020016040518060400160405280600781526020017f233930413441450000000000000000000000000000000000000000000000000081525081526020016040518060400160405280600781526020017f233738393039430000000000000000000000000000000000000000000000000081525081526020016040518060400160405280600781526020017f233630374438420000000000000000000000000000000000000000000000000081525081526020016040518060400160405280600781526020017f233534364537410000000000000000000000000000000000000000000000000081525081526020016040518060400160405280600781526020017f233435354136340000000000000000000000000000000000000000000000000081525081526020016040518060400160405280600781526020017f233337343734460000000000000000000000000000000000000000000000000081525081526020016040518060400160405280600781526020017f233236333233380000000000000000000000000000000000000000000000000081525081526020016040518060400160405280600781526020017f233030303030300000000000000000000000000000000000000000000000000081525081525060099060ff62003b4592919062003d78565b5034801562003b5357600080fd5b506040518060400160405280600881526020017f416e696d6f4e46540000000000000000000000000000000000000000000000008152506040518060400160405280600381526020017f4e46540000000000000000000000000000000000000000000000000000000000815250816000908051906020019062003bd892919062003ddf565b50806001908051906020019062003bf192919062003ddf565b50505062003c3f6040518060400160405280601e81526020017f54686973206973206d79204e465420636f6e74726163742e20576f616821000081525062003c4560201b62000efc1760201c565b6200402a565b62003ce58160405160240162003c5c919062003f3e565b6040516020818303038152906040527f41304fac000000000000000000000000000000000000000000000000000000007bffffffffffffffffffffffffffffffffffffffffffffffffffffffff19166020820180517bffffffffffffffffffffffffffffffffffffffffffffffffffffffff838183161783525050505062003ce860201b60201c565b50565b60008151905060006a636f6e736f6c652e6c6f679050602083016000808483855afa5050505050565b82805482825590600052602060002090810192821562003d65579160200282015b8281111562003d6457825182908051906020019062003d5392919062003ddf565b509160200191906001019062003d32565b5b50905062003d74919062003e70565b5090565b82805482825590600052602060002090810192821562003dcc579160200282015b8281111562003dcb57825182908051906020019062003dba92919062003ddf565b509160200191906001019062003d99565b5b50905062003ddb919062003e70565b5090565b82805462003ded9062003fb4565b90600052602060002090601f01602090048101928262003e11576000855562003e5d565b82601f1062003e2c57805160ff191683800117855562003e5d565b8280016001018555821562003e5d579182015b8281111562003e5c57825182559160200191906001019062003e3f565b5b50905062003e6c919062003e98565b5090565b5b8082111562003e94576000818162003e8a919062003eb7565b5060010162003e71565b5090565b5b8082111562003eb357600081600090555060010162003e99565b5090565b50805462003ec59062003fb4565b6000825580601f1062003ed9575062003efa565b601f01602090049060005260206000209081019062003ef9919062003e98565b5b50565b600062003f0a8262003f62565b62003f16818562003f6d565b935062003f2881856020860162003f7e565b62003f338162004019565b840191505092915050565b6000602082019050818103600083015262003f5a818462003efd565b905092915050565b600081519050919050565b600082825260208201905092915050565b60005b8381101562003f9e57808201518184015260208101905062003f81565b8381111562003fae576000848401525b50505050565b6000600282049050600182168062003fcd57607f821691505b6020821081141562003fe45762003fe362003fea565b5b50919050565b7f4e487b7100000000000000000000000000000000000000000000000000000000600052602260045260246000fd5b6000601f19601f8301169050919050565b613761806200403a6000396000f3fe608060405234801561001057600080fd5b50600436106101005760003560e01c806370a0823111610097578063b88d4fde11610066578063b88d4fde146102d1578063c87b56dd146102ed578063de9d132f1461031d578063e985e9c51461032757610100565b806370a08231146102375780638ec7edfd1461026757806395d89b4114610297578063a22cb465146102b557610100565b80631416f895116100d35780631416f8951461019f57806323b872dd146101cf57806342842e0e146101eb5780636352211e1461020757610100565b806301ffc9a71461010557806306fdde0314610135578063081812fc14610153578063095ea7b314610183575b600080fd5b61011f600480360381019061011a9190612328565b610357565b60405161012c9190612942565b60405180910390f35b61013d610439565b60405161014a919061295d565b60405180910390f35b61016d6004803603810190610168919061237a565b6104cb565b60405161017a91906128db565b60405180910390f35b61019d600480360381019061019891906122ec565b610550565b005b6101b960048036038101906101b4919061237a565b610668565b6040516101c6919061295d565b60405180910390f35b6101e960048036038101906101e491906121e6565b610786565b005b610205600480360381019061020091906121e6565b6107e6565b005b610221600480360381019061021c919061237a565b610806565b60405161022e91906128db565b60405180910390f35b610251600480360381019061024c9190612181565b6108b8565b60405161025e9190612bbd565b60405180910390f35b610281600480360381019061027c919061237a565b610970565b60405161028e919061295d565b60405180910390f35b61029f610a8e565b6040516102ac919061295d565b60405180910390f35b6102cf60048036038101906102ca91906122b0565b610b20565b005b6102eb60048036038101906102e69190612235565b610b36565b005b6103076004803603810190610302919061237a565b610b98565b604051610314919061295d565b60405180910390f35b610325610cea565b005b610341600480360381019061033c91906121aa565b610e68565b60405161034e9190612942565b60405180910390f35b60007f80ac58cd000000000000000000000000000000000000000000000000000000007bffffffffffffffffffffffffffffffffffffffffffffffffffffffff1916827bffffffffffffffffffffffffffffffffffffffffffffffffffffffff1916148061042257507f5b5e139f000000000000000000000000000000000000000000000000000000007bffffffffffffffffffffffffffffffffffffffffffffffffffffffff1916827bffffffffffffffffffffffffffffffffffffffffffffffffffffffff1916145b80610432575061043182610f95565b5b9050919050565b60606000805461044890612e3c565b80601f016020809104026020016040519081016040528092919081815260200182805461047490612e3c565b80156104c15780601f10610496576101008083540402835291602001916104c1565b820191906000526020600020905b8154815290600101906020018083116104a457829003601f168201915b5050505050905090565b60006104d682610fff565b610515576040517f08c379a000000000000000000000000000000000000000000000000000000000815260040161050c90612b3d565b60405180910390fd5b6004600083815260200190815260200160002060009054906101000a900473ffffffffffffffffffffffffffffffffffffffff169050919050565b600061055b82610806565b90508073ffffffffffffffffffffffffffffffffffffffff168373ffffffffffffffffffffffffffffffffffffffff1614156105cc576040517f08c379a00000000000000000000000000000000000000000000000000000000081526004016105c390612b7d565b60405180910390fd5b8073ffffffffffffffffffffffffffffffffffffffff166105eb61106b565b73ffffffffffffffffffffffffffffffffffffffff16148061061a57506106198161061461106b565b610e68565b5b610659576040517f08c379a000000000000000000000000000000000000000000000000000000000815260040161065090612a7d565b60405180910390fd5b6106638383611073565b505050565b6060600061069c6106788461112c565b6040516020016106889190612818565b6040516020818303038152906040526112d9565b9050600980549050816106af9190612ee8565b9050600981815481106106eb577f4e487b7100000000000000000000000000000000000000000000000000000000600052603260045260246000fd5b90600052602060002001805461070090612e3c565b80601f016020809104026020016040519081016040528092919081815260200182805461072c90612e3c565b80156107795780601f1061074e57610100808354040283529160200191610779565b820191906000526020600020905b81548152906001019060200180831161075c57829003601f168201915b5050505050915050919050565b61079761079161106b565b8261130c565b6107d6576040517f08c379a00000000000000000000000000000000000000000000000000000000081526004016107cd90612b9d565b60405180910390fd5b6107e18383836113ea565b505050565b61080183838360405180602001604052806000815250610b36565b505050565b6000806002600084815260200190815260200160002060009054906101000a900473ffffffffffffffffffffffffffffffffffffffff169050600073ffffffffffffffffffffffffffffffffffffffff168173ffffffffffffffffffffffffffffffffffffffff1614156108af576040517f08c379a00000000000000000000000000000000000000000000000000000000081526004016108a690612abd565b60405180910390fd5b80915050919050565b60008073ffffffffffffffffffffffffffffffffffffffff168273ffffffffffffffffffffffffffffffffffffffff161415610929576040517f08c379a000000000000000000000000000000000000000000000000000000000815260040161092090612a9d565b60405180910390fd5b600360008373ffffffffffffffffffffffffffffffffffffffff1673ffffffffffffffffffffffffffffffffffffffff168152602001908152602001600020549050919050565b606060006109a46109808461112c565b60405160200161099091906127f6565b6040516020818303038152906040526112d9565b9050600880549050816109b79190612ee8565b9050600881815481106109f3577f4e487b7100000000000000000000000000000000000000000000000000000000600052603260045260246000fd5b906000526020600020018054610a0890612e3c565b80601f0160208091040260200160405190810160405280929190818152602001828054610a3490612e3c565b8015610a815780601f10610a5657610100808354040283529160200191610a81565b820191906000526020600020905b815481529060010190602001808311610a6457829003601f168201915b5050505050915050919050565b606060018054610a9d90612e3c565b80601f0160208091040260200160405190810160405280929190818152602001828054610ac990612e3c565b8015610b165780601f10610aeb57610100808354040283529160200191610b16565b820191906000526020600020905b815481529060010190602001808311610af957829003601f168201915b5050505050905090565b610b32610b2b61106b565b8383611651565b5050565b610b47610b4161106b565b8361130c565b610b86576040517f08c379a0000000000000000000000000000000000000000000000000000000008152600401610b7d90612b9d565b60405180910390fd5b610b92848484846117be565b50505050565b6060610ba382610fff565b610be2576040517f08c379a0000000000000000000000000000000000000000000000000000000008152600401610bd990612b1d565b60405180910390fd5b6000600660008481526020019081526020016000208054610c0290612e3c565b80601f0160208091040260200160405190810160405280929190818152602001828054610c2e90612e3c565b8015610c7b5780601f10610c5057610100808354040283529160200191610c7b565b820191906000526020600020905b815481529060010190602001808311610c5e57829003601f168201915b505050505090506000610c8c61181a565b9050600081511415610ca2578192505050610ce5565b600082511115610cd7578082604051602001610cbf9291906127d2565b60405160208183030381529060405292505050610ce5565b610ce084611831565b925050505b919050565b6000610cf660076118d8565b90506000610d0382610970565b90506000610d1083610668565b905060008183604051602001610d279291906128ac565b60405160208183030381529060405290506000610d74610d468661112c565b610d4f846118e6565b604051602001610d6092919061283a565b6040516020818303038152906040526118e6565b9050600081604051602001610d89919061288a565b6040516020818303038152906040529050610dd86040518060400160405280601581526020017f0a2d2d2d2d2d2d2d2d2d2d2d2d2d2d2d2d2d2d2d2d0000000000000000000000815250610efc565b610de181610efc565b610e1f6040518060400160405280601581526020017f2d2d2d2d2d2d2d2d2d2d2d2d2d2d2d2d2d2d2d2d0a0000000000000000000000815250610efc565b610e293387611aa4565b610e338682611ac2565b610e3d6007611b36565b610e606040518060600160405280602581526020016136c7602591398733611b4c565b505050505050565b6000600560008473ffffffffffffffffffffffffffffffffffffffff1673ffffffffffffffffffffffffffffffffffffffff16815260200190815260200160002060008373ffffffffffffffffffffffffffffffffffffffff1673ffffffffffffffffffffffffffffffffffffffff16815260200190815260200160002060009054906101000a900460ff16905092915050565b610f9281604051602401610f10919061295d565b6040516020818303038152906040527f41304fac000000000000000000000000000000000000000000000000000000007bffffffffffffffffffffffffffffffffffffffffffffffffffffffff19166020820180517bffffffffffffffffffffffffffffffffffffffffffffffffffffffff8381831617835250505050611beb565b50565b60007f01ffc9a7000000000000000000000000000000000000000000000000000000007bffffffffffffffffffffffffffffffffffffffffffffffffffffffff1916827bffffffffffffffffffffffffffffffffffffffffffffffffffffffff1916149050919050565b60008073ffffffffffffffffffffffffffffffffffffffff166002600084815260200190815260200160002060009054906101000a900473ffffffffffffffffffffffffffffffffffffffff1673ffffffffffffffffffffffffffffffffffffffff1614159050919050565b600033905090565b816004600083815260200190815260200160002060006101000a81548173ffffffffffffffffffffffffffffffffffffffff021916908373ffffffffffffffffffffffffffffffffffffffff160217905550808273ffffffffffffffffffffffffffffffffffffffff166110e683610806565b73ffffffffffffffffffffffffffffffffffffffff167f8c5be1e5ebec7d5bd14f71427d1e84f3dd0314c0f7b2291e5b200ac8c7c3b92560405160405180910390a45050565b60606000821415611174576040518060400160405280600181526020017f300000000000000000000000000000000000000000000000000000000000000081525090506112d4565b600082905060005b600082146111a657808061118f90612e9f565b915050600a8261119f9190612cc7565b915061117c565b60008167ffffffffffffffff8111156111e8577f4e487b7100000000000000000000000000000000000000000000000000000000600052604160045260246000fd5b6040519080825280601f01601f19166020018201604052801561121a5781602001600182028036833780820191505090505b5090505b600085146112cd576001826112339190612d52565b9150600a856112429190612ee8565b603061124e9190612c71565b60f81b81838151811061128a577f4e487b7100000000000000000000000000000000000000000000000000000000600052603260045260246000fd5b60200101907effffffffffffffffffffffffffffffffffffffffffffffffffffffffffffff1916908160001a905350600a856112c69190612cc7565b945061121e565b8093505050505b919050565b6000816040516020016112ec91906127bb565b6040516020818303038152906040528051906020012060001c9050919050565b600061131782610fff565b611356576040517f08c379a000000000000000000000000000000000000000000000000000000000815260040161134d90612a5d565b60405180910390fd5b600061136183610806565b90508073ffffffffffffffffffffffffffffffffffffffff168473ffffffffffffffffffffffffffffffffffffffff1614806113d057508373ffffffffffffffffffffffffffffffffffffffff166113b8846104cb565b73ffffffffffffffffffffffffffffffffffffffff16145b806113e157506113e08185610e68565b5b91505092915050565b8273ffffffffffffffffffffffffffffffffffffffff1661140a82610806565b73ffffffffffffffffffffffffffffffffffffffff1614611460576040517f08c379a0000000000000000000000000000000000000000000000000000000008152600401611457906129dd565b60405180910390fd5b600073ffffffffffffffffffffffffffffffffffffffff168273ffffffffffffffffffffffffffffffffffffffff1614156114d0576040517f08c379a00000000000000000000000000000000000000000000000000000000081526004016114c790612a1d565b60405180910390fd5b6114db838383611c14565b6114e6600082611073565b6001600360008573ffffffffffffffffffffffffffffffffffffffff1673ffffffffffffffffffffffffffffffffffffffff16815260200190815260200160002060008282546115369190612d52565b925050819055506001600360008473ffffffffffffffffffffffffffffffffffffffff1673ffffffffffffffffffffffffffffffffffffffff168152602001908152602001600020600082825461158d9190612c71565b92505081905550816002600083815260200190815260200160002060006101000a81548173ffffffffffffffffffffffffffffffffffffffff021916908373ffffffffffffffffffffffffffffffffffffffff160217905550808273ffffffffffffffffffffffffffffffffffffffff168473ffffffffffffffffffffffffffffffffffffffff167fddf252ad1be2c89b69c2b068fc378daa952ba7f163c4a11628f55a4df523b3ef60405160405180910390a461164c838383611c19565b505050565b8173ffffffffffffffffffffffffffffffffffffffff168373ffffffffffffffffffffffffffffffffffffffff1614156116c0576040517f08c379a00000000000000000000000000000000000000000000000000000000081526004016116b790612a3d565b60405180910390fd5b80600560008573ffffffffffffffffffffffffffffffffffffffff1673ffffffffffffffffffffffffffffffffffffffff16815260200190815260200160002060008473ffffffffffffffffffffffffffffffffffffffff1673ffffffffffffffffffffffffffffffffffffffff16815260200190815260200160002060006101000a81548160ff0219169083151502179055508173ffffffffffffffffffffffffffffffffffffffff168373ffffffffffffffffffffffffffffffffffffffff167f17307eab39ab6107e8899845ad3d59bd9653f200f220920489ca2b5937696c31836040516117b19190612942565b60405180910390a3505050565b6117c98484846113ea565b6117d584848484611c1e565b611814576040517f08c379a000000000000000000000000000000000000000000000000000000000815260040161180b906129bd565b60405180910390fd5b50505050565b606060405180602001604052806000815250905090565b606061183c82610fff565b61187b576040517f08c379a000000000000000000000000000000000000000000000000000000000815260040161187290612b5d565b60405180910390fd5b600061188561181a565b905060008151116118a557604051806020016040528060008152506118d0565b806118af8461112c565b6040516020016118c09291906127d2565b6040516020818303038152906040525b915050919050565b600081600001549050919050565b6060600082519050600081141561190f5760405180602001604052806000815250915050611a9f565b600060036002836119209190612c71565b61192a9190612cc7565b60046119369190612cf8565b905060006020826119479190612c71565b67ffffffffffffffff811115611986577f4e487b7100000000000000000000000000000000000000000000000000000000600052604160045260246000fd5b6040519080825280601f01601f1916602001820160405280156119b85781602001600182028036833780820191505090505b50905060006040518060600160405280604081526020016136ec604091399050600181016020830160005b86811015611a5c5760038101905062ffffff818a015116603f8160121c168401518060081b905060ff603f83600c1c1686015116810190508060081b905060ff603f8360061c1686015116810190508060081b905060ff603f831686015116810190508060e01b905080845260048401935050506119e3565b506003860660018114611a765760028114611a8657611a91565b613d3d60f01b6002830352611a91565b603d60f81b60018303525b508484525050819450505050505b919050565b611abe828260405180602001604052806000815250611db5565b5050565b611acb82610fff565b611b0a576040517f08c379a0000000000000000000000000000000000000000000000000000000008152600401611b0190612add565b60405180910390fd5b80600660008481526020019081526020016000209080519060200190611b3192919061200d565b505050565b6001816000016000828254019250508190555050565b611be6838383604051602401611b649392919061297f565b6040516020818303038152906040527fe3849f79000000000000000000000000000000000000000000000000000000007bffffffffffffffffffffffffffffffffffffffffffffffffffffffff19166020820180517bffffffffffffffffffffffffffffffffffffffffffffffffffffffff8381831617835250505050611beb565b505050565b60008151905060006a636f6e736f6c652e6c6f679050602083016000808483855afa5050505050565b505050565b505050565b6000611c3f8473ffffffffffffffffffffffffffffffffffffffff16611e10565b15611da8578373ffffffffffffffffffffffffffffffffffffffff1663150b7a02611c6861106b565b8786866040518563ffffffff1660e01b8152600401611c8a94939291906128f6565b602060405180830381600087803b158015611ca457600080fd5b505af1925050508015611cd557506040513d601f19601f82011682018060405250810190611cd29190612351565b60015b611d58573d8060008114611d05576040519150601f19603f3d011682016040523d82523d6000602084013e611d0a565b606091505b50600081511415611d50576040517f08c379a0000000000000000000000000000000000000000000000000000000008152600401611d47906129bd565b60405180910390fd5b805181602001fd5b63150b7a0260e01b7bffffffffffffffffffffffffffffffffffffffffffffffffffffffff1916817bffffffffffffffffffffffffffffffffffffffffffffffffffffffff191614915050611dad565b600190505b949350505050565b611dbf8383611e33565b611dcc6000848484611c1e565b611e0b576040517f08c379a0000000000000000000000000000000000000000000000000000000008152600401611e02906129bd565b60405180910390fd5b505050565b6000808273ffffffffffffffffffffffffffffffffffffffff163b119050919050565b600073ffffffffffffffffffffffffffffffffffffffff168273ffffffffffffffffffffffffffffffffffffffff161415611ea3576040517f08c379a0000000000000000000000000000000000000000000000000000000008152600401611e9a90612afd565b60405180910390fd5b611eac81610fff565b15611eec576040517f08c379a0000000000000000000000000000000000000000000000000000000008152600401611ee3906129fd565b60405180910390fd5b611ef860008383611c14565b6001600360008473ffffffffffffffffffffffffffffffffffffffff1673ffffffffffffffffffffffffffffffffffffffff1681526020019081526020016000206000828254611f489190612c71565b92505081905550816002600083815260200190815260200160002060006101000a81548173ffffffffffffffffffffffffffffffffffffffff021916908373ffffffffffffffffffffffffffffffffffffffff160217905550808273ffffffffffffffffffffffffffffffffffffffff16600073ffffffffffffffffffffffffffffffffffffffff167fddf252ad1be2c89b69c2b068fc378daa952ba7f163c4a11628f55a4df523b3ef60405160405180910390a461200960008383611c19565b5050565b82805461201990612e3c565b90600052602060002090601f01602090048101928261203b5760008555612082565b82601f1061205457805160ff1916838001178555612082565b82800160010185558215612082579182015b82811115612081578251825591602001919060010190612066565b5b50905061208f9190612093565b5090565b5b808211156120ac576000816000905550600101612094565b5090565b60006120c36120be84612bfd565b612bd8565b9050828152602081018484840111156120db57600080fd5b6120e6848285612dfa565b509392505050565b6000813590506120fd8161366a565b92915050565b60008135905061211281613681565b92915050565b60008135905061212781613698565b92915050565b60008151905061213c81613698565b92915050565b600082601f83011261215357600080fd5b81356121638482602086016120b0565b91505092915050565b60008135905061217b816136af565b92915050565b60006020828403121561219357600080fd5b60006121a1848285016120ee565b91505092915050565b600080604083850312156121bd57600080fd5b60006121cb858286016120ee565b92505060206121dc858286016120ee565b9150509250929050565b6000806000606084860312156121fb57600080fd5b6000612209868287016120ee565b935050602061221a868287016120ee565b925050604061222b8682870161216c565b9150509250925092565b6000806000806080858703121561224b57600080fd5b6000612259878288016120ee565b945050602061226a878288016120ee565b935050604061227b8782880161216c565b925050606085013567ffffffffffffffff81111561229857600080fd5b6122a487828801612142565b91505092959194509250565b600080604083850312156122c357600080fd5b60006122d1858286016120ee565b92505060206122e285828601612103565b9150509250929050565b600080604083850312156122ff57600080fd5b600061230d858286016120ee565b925050602061231e8582860161216c565b9150509250929050565b60006020828403121561233a57600080fd5b600061234884828501612118565b91505092915050565b60006020828403121561236357600080fd5b60006123718482850161212d565b91505092915050565b60006020828403121561238c57600080fd5b600061239a8482850161216c565b91505092915050565b6123ac81612d86565b82525050565b6123bb81612d98565b82525050565b60006123cc82612c2e565b6123d68185612c44565b93506123e6818560208601612e09565b6123ef81612fd5565b840191505092915050565b600061240582612c39565b61240f8185612c55565b935061241f818560208601612e09565b61242881612fd5565b840191505092915050565b600061243e82612c39565b6124488185612c66565b9350612458818560208601612e09565b80840191505092915050565b6000612471600b83612c66565b915061247c82612fe6565b600b82019050919050565b6000612494603283612c55565b915061249f8261300f565b604082019050919050565b60006124b7602583612c55565b91506124c28261305e565b604082019050919050565b60006124da601c83612c55565b91506124e5826130ad565b602082019050919050565b60006124fd602483612c55565b9150612508826130d6565b604082019050919050565b6000612520601983612c55565b915061252b82613125565b602082019050919050565b6000612543602c83612c55565b915061254e8261314e565b604082019050919050565b6000612566606183612c66565b91506125718261319d565b606182019050919050565b6000612589603883612c55565b915061259482613238565b604082019050919050565b60006125ac602a83612c55565b91506125b782613287565b604082019050919050565b60006125cf602983612c55565b91506125da826132d6565b604082019050919050565b60006125f2602e83612c55565b91506125fd82613325565b604082019050919050565b6000612615600283612c66565b915061262082613374565b600282019050919050565b6000612638600d83612c66565b91506126438261339d565b600d82019050919050565b600061265b602083612c55565b9150612666826133c6565b602082019050919050565b600061267e603183612c55565b9150612689826133ef565b604082019050919050565b60006126a1602c83612c55565b91506126ac8261343e565b604082019050919050565b60006126c4602f83612c55565b91506126cf8261348d565b604082019050919050565b60006126e7600a83612c66565b91506126f2826134dc565b600a82019050919050565b600061270a602183612c55565b915061271582613505565b604082019050919050565b600061272d601d83612c66565b915061273882613554565b601d82019050919050565b6000612750605783612c66565b915061275b8261357d565b605782019050919050565b6000612773603183612c55565b915061277e826135f2565b604082019050919050565b6000612796600783612c66565b91506127a182613641565b600782019050919050565b6127b581612df0565b82525050565b60006127c78284612433565b915081905092915050565b60006127de8285612433565b91506127ea8284612433565b91508190509392505050565b600061280182612464565b915061280d8284612433565b915081905092915050565b60006128238261262b565b915061282f8284612433565b915081905092915050565b6000612845826126da565b915061285082612789565b915061285c8285612433565b915061286782612559565b91506128738284612433565b915061287e82612608565b91508190509392505050565b600061289582612720565b91506128a18284612433565b915081905092915050565b60006128b782612743565b91506128c38285612433565b91506128cf8284612433565b91508190509392505050565b60006020820190506128f060008301846123a3565b92915050565b600060808201905061290b60008301876123a3565b61291860208301866123a3565b61292560408301856127ac565b818103606083015261293781846123c1565b905095945050505050565b600060208201905061295760008301846123b2565b92915050565b6000602082019050818103600083015261297781846123fa565b905092915050565b6000606082019050818103600083015261299981866123fa565b90506129a860208301856127ac565b6129b560408301846123a3565b949350505050565b600060208201905081810360008301526129d681612487565b9050919050565b600060208201905081810360008301526129f6816124aa565b9050919050565b60006020820190508181036000830152612a16816124cd565b9050919050565b60006020820190508181036000830152612a36816124f0565b9050919050565b60006020820190508181036000830152612a5681612513565b9050919050565b60006020820190508181036000830152612a7681612536565b9050919050565b60006020820190508181036000830152612a968161257c565b9050919050565b60006020820190508181036000830152612ab68161259f565b9050919050565b60006020820190508181036000830152612ad6816125c2565b9050919050565b60006020820190508181036000830152612af6816125e5565b9050919050565b60006020820190508181036000830152612b168161264e565b9050919050565b60006020820190508181036000830152612b3681612671565b9050919050565b60006020820190508181036000830152612b5681612694565b9050919050565b60006020820190508181036000830152612b76816126b7565b9050919050565b60006020820190508181036000830152612b96816126fd565b9050919050565b60006020820190508181036000830152612bb681612766565b9050919050565b6000602082019050612bd260008301846127ac565b92915050565b6000612be2612bf3565b9050612bee8282612e6e565b919050565b6000604051905090565b600067ffffffffffffffff821115612c1857612c17612fa6565b5b612c2182612fd5565b9050602081019050919050565b600081519050919050565b600081519050919050565b600082825260208201905092915050565b600082825260208201905092915050565b600081905092915050565b6000612c7c82612df0565b9150612c8783612df0565b9250827fffffffffffffffffffffffffffffffffffffffffffffffffffffffffffffffff03821115612cbc57612cbb612f19565b5b828201905092915050565b6000612cd282612df0565b9150612cdd83612df0565b925082612ced57612cec612f48565b5b828204905092915050565b6000612d0382612df0565b9150612d0e83612df0565b9250817fffffffffffffffffffffffffffffffffffffffffffffffffffffffffffffffff0483118215151615612d4757612d46612f19565b5b828202905092915050565b6000612d5d82612df0565b9150612d6883612df0565b925082821015612d7b57612d7a612f19565b5b828203905092915050565b6000612d9182612dd0565b9050919050565b60008115159050919050565b60007fffffffff0000000000000000000000000000000000000000000000000000000082169050919050565b600073ffffffffffffffffffffffffffffffffffffffff82169050919050565b6000819050919050565b82818337600083830152505050565b60005b83811015612e27578082015181840152602081019050612e0c565b83811115612e36576000848401525b50505050565b60006002820490506001821680612e5457607f821691505b60208210811415612e6857612e67612f77565b5b50919050565b612e7782612fd5565b810181811067ffffffffffffffff82111715612e9657612e95612fa6565b5b80604052505050565b6000612eaa82612df0565b91507fffffffffffffffffffffffffffffffffffffffffffffffffffffffffffffffff821415612edd57612edc612f19565b5b600182019050919050565b6000612ef382612df0565b9150612efe83612df0565b925082612f0e57612f0d612f48565b5b828206905092915050565b7f4e487b7100000000000000000000000000000000000000000000000000000000600052601160045260246000fd5b7f4e487b7100000000000000000000000000000000000000000000000000000000600052601260045260246000fd5b7f4e487b7100000000000000000000000000000000000000000000000000000000600052602260045260246000fd5b7f4e487b7100000000000000000000000000000000000000000000000000000000600052604160045260246000fd5b6000601f19601f8301169050919050565b7f5356475f56415249414e54000000000000000000000000000000000000000000600082015250565b7f4552433732313a207472616e7366657220746f206e6f6e20455243373231526560008201527f63656976657220696d706c656d656e7465720000000000000000000000000000602082015250565b7f4552433732313a207472616e736665722066726f6d20696e636f72726563742060008201527f6f776e6572000000000000000000000000000000000000000000000000000000602082015250565b7f4552433732313a20746f6b656e20616c7265616479206d696e74656400000000600082015250565b7f4552433732313a207472616e7366657220746f20746865207a65726f2061646460008201527f7265737300000000000000000000000000000000000000000000000000000000602082015250565b7f4552433732313a20617070726f766520746f2063616c6c657200000000000000600082015250565b7f4552433732313a206f70657261746f7220717565727920666f72206e6f6e657860008201527f697374656e7420746f6b656e0000000000000000000000000000000000000000602082015250565b7f222c20226465736372697074696f6e223a20224275696c64696e67207468652060008201527f696e667261737472756374757265206f6620746f6d6f72726f77222c2022696d60208201527f616765223a2022646174613a696d6167652f7376672b786d6c3b62617365363460408201527f2c00000000000000000000000000000000000000000000000000000000000000606082015250565b7f4552433732313a20617070726f76652063616c6c6572206973206e6f74206f7760008201527f6e6572206e6f7220617070726f76656420666f7220616c6c0000000000000000602082015250565b7f4552433732313a2062616c616e636520717565727920666f7220746865207a6560008201527f726f206164647265737300000000000000000000000000000000000000000000602082015250565b7f4552433732313a206f776e657220717565727920666f72206e6f6e657869737460008201527f656e7420746f6b656e0000000000000000000000000000000000000000000000602082015250565b7f45524337323155524953746f726167653a2055524920736574206f66206e6f6e60008201527f6578697374656e7420746f6b656e000000000000000000000000000000000000602082015250565b7f227d000000000000000000000000000000000000000000000000000000000000600082015250565b7f434f4c4f525f414343454e545300000000000000000000000000000000000000600082015250565b7f4552433732313a206d696e7420746f20746865207a65726f2061646472657373600082015250565b7f45524337323155524953746f726167653a2055524920717565727920666f722060008201527f6e6f6e6578697374656e7420746f6b656e000000000000000000000000000000602082015250565b7f4552433732313a20617070726f76656420717565727920666f72206e6f6e657860008201527f697374656e7420746f6b656e0000000000000000000000000000000000000000602082015250565b7f4552433732314d657461646174613a2055524920717565727920666f72206e6f60008201527f6e6578697374656e7420746f6b656e0000000000000000000000000000000000602082015250565b7f7b226e616d65223a202200000000000000000000000000000000000000000000600082015250565b7f4552433732313a20617070726f76616c20746f2063757272656e74206f776e6560008201527f7200000000000000000000000000000000000000000000000000000000000000602082015250565b7f646174613a6170706c69636174696f6e2f6a736f6e3b6261736536342c000000600082015250565b7f3c73766720786d6c6e733d27687474703a2f2f7777772e77332e6f72672f323060008201527f30302f737667272076696577426f783d273020302031303020313030273e3c6460208201527f6566733e3c7374796c653e2e636c732d337b66696c6c3a000000000000000000604082015250565b7f4552433732313a207472616e736665722063616c6c6572206973206e6f74206f60008201527f776e6572206e6f7220617070726f766564000000000000000000000000000000602082015250565b7f416e696d6f202300000000000000000000000000000000000000000000000000600082015250565b61367381612d86565b811461367e57600080fd5b50565b61368a81612d98565b811461369557600080fd5b50565b6136a181612da4565b81146136ac57600080fd5b50565b6136b881612df0565b81146136c357600080fd5b5056fe416e204e465420772f20494420257320686173206265656e206d696e74656420746f2025734142434445464748494a4b4c4d4e4f505152535455565758595a6162636465666768696a6b6c6d6e6f707172737475767778797a303132333435363738392b2fa2646970667358221220988485426ed6b526e03ddc63f56907ed2e56dd57ea887470760435aad2c621bb64736f6c634300080100333b7d3c2f7374796c653e3c2f646566733e3c672069643d274c617965725f322720646174612d6e616d653d274c617965722032273e3c672069643d274c617965725f312d322720646174612d6e616d653d274c617965722031273e3c726563742066696c6c3d2723663566356635272077696474683d2731303027206865696768743d27313030272f3e3c706f6c79676f6e2066696c6c3d27233230323232332720706f696e74733d2734332e39312032312e362035352e34362032312e362034392e39312031322e34322034332e39312032312e36272f3e3c706f6c79676f6e2066696c6c3d27233230323232332720706f696e74733d2732342e332035352e32382033352e38352035352e32382033302e33392034352e38312032342e332035352e3238272f3e3c706f6c79676f6e20636c6173733d27636c732d332720706f696e74733d2737362e34352037372e37352038382e30312037372e37352038322e34352036382e35372037362e34352037372e3735272f3e3c706f6c79676f6e20636c6173733d27636c732d332720706f696e74733d2733362e39382035352e38332034332e34322034352e31352033302e36312034352e31372033362e39382035352e3833272f3e3c706174682066696c6c3d27233230323232332720643d274d35352e35332c38392e382c33302e31382c34352e376c2e38312d2e3437762d2e38364838312e37355a6d2d32342d34342e32334c35352e35332c38372e342c37392e36382c34352e35375a272f3e3c706174682066696c6c3d27233230323232332720643d274d35352e35332c39302e32382c32392e38352c34352e36326c2e392d2e3532762d314838322e31366c2d2e32312e33365a6d2d32352d34342e34392c32352c34332e35332c32352e382d34342e37314833312e3233762e37324838302e30396c2d2e32312e33364c35352e35332c38372e38382c33312e31322c34352e34335a6d312e33392c304c35352e35332c38362e39332c37392e32362c34352e38315a272f3e3c706f6c79676f6e2066696c6c3d27233230323232332720706f696e74733d2734392e35312037382e36342031302e32392037382e36342034392e37362031302e32362036392e37332034342e37312036382e372034352e33312034392e37362031322e36352031322e33362037372e34352034392e35312037372e34352034392e35312037382e3634272f3e3c706174682066696c6c3d27233230323232332720643d274d34392e37352c37382e383848392e38386c2e322d2e33364c34392e37352c392e37396c32302e33312c33352d312e34352e38342d2e31322d2e32314c34392e37362c31332e31336c2d33372c36342e30386833375a6d2d33392d2e34384834392e3237762d2e37314831326c2e322d2e33364c34392e37362c31322e31372c36382e37392c34356c2e36322d2e33364c34392e37362c31302e37345a272f3e3c726563742066696c6c3d27233230323232332720783d2732342e33362720793d2735342e3435272077696474683d2731312e383827206865696768743d27312e32272f3e3c706174682066696c6c3d27233230323232332720643d274d33362e34382c35352e38394832342e31325635342e32314833362e34385a4d32342e362c35352e3431483336762d2e37324832342e365a272f3e3c706f6c79676f6e2066696c6c3d27233230323232332720706f696e74733d2738392e32322037382e36342036312e39392037382e36342036312e39392037372e34352038372e31352037372e34352037342e34342035352e34312037352e34382035342e38312038392e32322037382e3634272f3e3c706174682066696c6c3d27233230323232332720643d274d38392e36342c37382e38384836312e37355637372e32316832354c37342e31312c35352e33326c312e34352d2e38332e31322e325a4d36322e32332c37382e344838382e38314c37352e33392c35352e31346c2d2e36322e33362c31322e382c32322e31394836322e32335a272f3e3c706174682066696c6c3d27233230323232332720643d274d36392e38312c36342e33352c33382e33322c313061322e35372c322e35372c302c302c302c312e33322c356c2e30382c304c36382e37382c36355a272f3e3c706174682066696c6c3d27233230323232332720643d274d36382e36392c36352e32386c2d32392e30382d353061322e38312c322e38312c302c302c312d312e33352d352e34366c2e31382c302c2e30392e31364c37302e31342c36342e34345a4d33392e37362c31342e376c2e31372e31332c32382e39332c34392e382e36322d2e33362d33312e32372d353461322e33342c322e33342c302c302c302c312e33372c342e34365a272f3e3c706174682066696c6c3d27233230323232332720643d274d38392e31312c35372e343941322e35362c322e35362c302c302c302c38382c35362e38374c37352e38312c37386c312c2e362c392e382d31362e373661322e35372c322e35372c302c302c302c322e34372d342e33325a272f3e3c706174682066696c6c3d27233230323232332720643d274d37362e39332c37382e396c2d312e34342d2e38352e31322d2e324c38372e38392c35362e35396c2e31372c3061322e37332c322e37332c302c302c312c312e32312e3638683061322e382c322e382c302c302c312d322e35312c342e37365a6d2d2e37392d312c2e36322e33362c392e37372d31362e37312e31372c3061322e33332c322e33332c302c302c302c322e32342d332e3932683061322e34312c322e34312c302c302c302d2e38332d2e35315a272f3e3c706174682066696c6c3d27233230323232332720643d274d34362e32312c38362e383141322e35392c322e35392c302c302c302c34332e30352c383568304c32352e32372c35342e37316c2d312c2e36314c34342e34362c38392e393441322e35372c322e35372c302c302c302c34362e32312c38362e38315a272f3e3c706174682066696c6c3d27233230323232332720643d274d34342e33352c39302e32326c2d32302e34342d33352c312e34342d2e38352e31322e32314c34332e31342c38342e373361322e38332c322e38332c302c302c312c332e332c32683061322e38312c322e38312c302c302c312d312e39312c332e34325a4d32342e35362c35352e346c32302c33342e323541322e33322c322e33322c302c302c302c34362c38362e3837683061322e33322c322e33322c302c302c302d322e38362d312e36356c2d2e31372c302d2e31322d2e31354c32352e31382c35355a272f3e3c726563742066696c6c3d27233230323232332720783d2733332e37372720793d2734392e3436272077696474683d2731322e313727206865696768743d27312e3227207472616e73666f726d3d277472616e736c617465282d32332e37342035372e31352920726f74617465282d35372e383429272f3e3c706174682066696c6c3d27233230323232332720643d274d33372e31392c35352e38362c33352e37382c35356c362e37332d31302e37312c312e34312e38395a6d2d2e37352d312c2e362e33382c362e32322d392e392d2e362d2e33385a272f3e3c2f673e3c2f673e3c2f7376673e3b7d3c2f7374796c653e3c2f646566733e3c672069643d274c617965725f322720646174612d6e616d653d274c617965722032273e3c672069643d274c617965725f312d322720646174612d6e616d653d274c617965722031273e3c726563742066696c6c3d272332303232323327202077696474683d2731303027206865696768743d27313030272f3e3c706f6c79676f6e2066696c6c3d2723663566356635272020706f696e74733d2734332e39312032312e362035352e34362032312e362034392e39312031322e34322034332e39312032312e36272f3e3c706f6c79676f6e2066696c6c3d2723663566356635272020706f696e74733d2732342e332035352e32382033352e38352035352e32382033302e33392034352e38312032342e332035352e3238272f3e3c706f6c79676f6e20636c6173733d27636c732d332720706f696e74733d2737362e34352037372e37352038382e30312037372e37352038322e34352036382e35372037362e34352037372e3735272f3e3c706f6c79676f6e20636c6173733d27636c732d332720706f696e74733d2733362e39382035352e38332034332e34322034352e31352033302e36312034352e31372033362e39382035352e3833272f3e3c706174682066696c6c3d2723663566356635272020643d274d35352e35332c38392e382c33302e31382c34352e376c2e38312d2e3437762d2e38364838312e37355a6d2d32342d34342e32334c35352e35332c38372e342c37392e36382c34352e35375a272f3e3c706174682066696c6c3d2723663566356635272020643d274d35352e35332c39302e32382c32392e38352c34352e36326c2e392d2e3532762d314838322e31366c2d2e32312e33365a6d2d32352d34342e34392c32352c34332e35332c32352e382d34342e37314833312e3233762e37324838302e30396c2d2e32312e33364c35352e35332c38372e38382c33312e31322c34352e34335a6d312e33392c304c35352e35332c38362e39332c37392e32362c34352e38315a272f3e3c706f6c79676f6e2066696c6c3d2723663566356635272020706f696e74733d2734392e35312037382e36342031302e32392037382e36342034392e37362031302e32362036392e37332034342e37312036382e372034352e33312034392e37362031322e36352031322e33362037372e34352034392e35312037372e34352034392e35312037382e3634272f3e3c706174682066696c6c3d2723663566356635272020643d274d34392e37352c37382e383848392e38386c2e322d2e33364c34392e37352c392e37396c32302e33312c33352d312e34352e38342d2e31322d2e32314c34392e37362c31332e31336c2d33372c36342e30386833375a6d2d33392d2e34384834392e3237762d2e37314831326c2e322d2e33364c34392e37362c31322e31372c36382e37392c34356c2e36322d2e33364c34392e37362c31302e37345a272f3e3c726563742066696c6c3d2723663566356635272020783d2732342e33362720793d2735342e3435272077696474683d2731312e383827206865696768743d27312e32272f3e3c706174682066696c6c3d2723663566356635272020643d274d33362e34382c35352e38394832342e31325635342e32314833362e34385a4d32342e362c35352e3431483336762d2e37324832342e365a272f3e3c706f6c79676f6e2066696c6c3d2723663566356635272020706f696e74733d2738392e32322037382e36342036312e39392037382e36342036312e39392037372e34352038372e31352037372e34352037342e34342035352e34312037352e34382035342e38312038392e32322037382e3634272f3e3c706174682066696c6c3d2723663566356635272020643d274d38392e36342c37382e38384836312e37355637372e32316832354c37342e31312c35352e33326c312e34352d2e38332e31322e325a4d36322e32332c37382e344838382e38314c37352e33392c35352e31346c2d2e36322e33362c31322e382c32322e31394836322e32335a272f3e3c706174682066696c6c3d2723663566356635272020643d274d36392e38312c36342e33352c33382e33322c313061322e35372c322e35372c302c302c302c312e33322c356c2e30382c304c36382e37382c36355a272f3e3c706174682066696c6c3d2723663566356635272020643d274d36382e36392c36352e32386c2d32392e30382d353061322e38312c322e38312c302c302c312d312e33352d352e34366c2e31382c302c2e30392e31364c37302e31342c36342e34345a4d33392e37362c31342e376c2e31372e31332c32382e39332c34392e382e36322d2e33362d33312e32372d353461322e33342c322e33342c302c302c302c312e33372c342e34365a272f3e3c706174682066696c6c3d2723663566356635272020643d274d38392e31312c35372e343941322e35362c322e35362c302c302c302c38382c35362e38374c37352e38312c37386c312c2e362c392e382d31362e373661322e35372c322e35372c302c302c302c322e34372d342e33325a272f3e3c706174682066696c6c3d2723663566356635272020643d274d37362e39332c37382e396c2d312e34342d2e38352e31322d2e324c38372e38392c35362e35396c2e31372c3061322e37332c322e37332c302c302c312c312e32312e3638683061322e382c322e382c302c302c312d322e35312c342e37365a6d2d2e37392d312c2e36322e33362c392e37372d31362e37312e31372c3061322e33332c322e33332c302c302c302c322e32342d332e3932683061322e34312c322e34312c302c302c302d2e38332d2e35315a272f3e3c706174682066696c6c3d2723663566356635272020643d274d34362e32312c38362e383141322e35392c322e35392c302c302c302c34332e30352c383568304c32352e32372c35342e37316c2d312c2e36314c34342e34362c38392e393441322e35372c322e35372c302c302c302c34362e32312c38362e38315a272f3e3c706174682066696c6c3d2723663566356635272020643d274d34342e33352c39302e32326c2d32302e34342d33352c312e34342d2e38352e31322e32314c34332e31342c38342e373361322e38332c322e38332c302c302c312c332e332c32683061322e38312c322e38312c302c302c312d312e39312c332e34325a4d32342e35362c35352e346c32302c33342e323541322e33322c322e33322c302c302c302c34362c38362e3837683061322e33322c322e33322c302c302c302d322e38362d312e36356c2d2e31372c302d2e31322d2e31354c32352e31382c35355a272f3e3c726563742066696c6c3d2723663566356635272020783d2733332e37372720793d2734392e3436272077696474683d2731322e313727206865696768743d27312e3227207472616e73666f726d3d277472616e736c617465282d32332e37342035372e31352920726f74617465282d35372e383429272f3e3c706174682066696c6c3d2723663566356635272020643d274d33372e31392c35352e38362c33352e37382c35356c362e37332d31302e37312c312e34312e38395a6d2d2e37352d312c2e362e33382c362e32322d392e392d2e362d2e33385a272f3e3c2f673e3c2f673e3c2f7376673e",
  "linkReferences": {},
  "deployedLinkReferences": {}
}